S00C0000556172742E737265637C
S11300000C9438000C9455000C9455000C94550035
S11300100C9455000C9455000C9455000C94550008
S11300200C9455000C9455000C9455000C945500F8
S11300300C9455000C9455000C9455000C945500E8
S11300400C9455000C9455000C9455000C945500D8
S11300500C9455000C9455000C9455000C945500C8
S11300600C9455000C9455000C9455000C945500B8
S113007011241FBECFEFD4E0DEBFCDBF12E0A0E05D
S1130080B1E0E4E1FAE002C005900D92A430B107BA
S1130090D9F722E0A4E0B2E001C01D92AE30B2076D
S11300A0E1F70E9457000C9408050C94000080E2CC
S11300B080BF81E08ABB84B3876084BB8EE190E01B
S11300C00E948E0086E091E09F938F930E94E60049
S11300D00F900F9085B3866085BB29EC8FE791E084
S11300E0215080409040E1F700C0000085B3847047
S11300F085BB29EC8FE791E0215080409040E1F7E7
S113010000C00000E7CF5D9BFECF8CB980E090E09B
S113011008955F9BFECF8CB190E0089590BD89B99E
S113012088E18AB98EE880BD69E870E083E890E0F0
S11301300E949B0008950F931F93CF93DF93009722
S113014031F46115710519F480E090E03AC08B0137
S1130150EC016EE070E081E090E00E94DD02FC01C1
S1130160892B91F380E883830115110571F01387BE
S1130170028781E883838091040290910502892B90
S113018021F4F0930502E09304022097C9F0D1878B
S1130190C0878381826083838091060290910702E5
S11301A0892B71F4F0930702E09306028091080210
S11301B090910902892B21F4F0930902E09308023B
S11301C0CF01DF91CF911F910F910895A0E0B0E08E
S11301D0ECEEF0E00C94E104AE014B5F5F4FFA01EA
S11301E061917191AF0180910602909107020E9482
S11301F0FC00E2E00C94FD04ABE0B0E0E2E0F1E0EE
S11302000C94D1046C017B018A01FC0117821682D3
S1130210838181FFCCC1CE0101963C01F60193811B
S1130220F70193FD859193FF81917F01882309F460
S1130230BAC1853239F493FD859193FF81917F0191
S1130240853229F4B60190E00E943704E7CF912C5F
S1130250212C312CFFE1F315D8F08B3279F038F4EE
S1130260803279F08332A1F4232D20611DC08D32B8
S113027061F0803369F4232D216016C0832D8260E0
S1130280382EE32DE4603E2E2AC0F32DF8601DC005
S113029037FC2DC020ED280F2A3040F08E32B9F4FF
S11302A036FC81C1232D2064322E19C036FE06C0CF
S11302B08AE0989E200D1124922E11C0EAE02E9E11
S11302C0200D1124222EF32DF0623F2E08C08C360F
S11302D021F4832D8068382E02C0883641F4F7015A
S11302E093FD859193FF81917F018111B3CF982F65
S11302F09F7D9554933028F40C5F1F4F9FE399839F
S11303000DC0833631F0833771F0833509F059C05D
S113031021C0F801808189830E5F1F4F8824839454
S1130320912C530113C02801F2E04F0E511CF80127
S1130330A080B18036FE03C0692D70E002C06FEF6B
S11303407FEFC5010E942C044C018201F32DFF773D
S11303503F2E16C0280122E0420E511CF801A08055
S1130360B18036FE03C0692D70E002C06FEF7FEFED
S1130370C5010E941A044C01F32DF0683F2E82013E
S113038033FC1BC0822D90E088169906B0F4B601A8
S113039080E290E00E9437042A94F4CFF50137FC00
S11303A0859137FE81915F01B60190E00E94370488
S11303B021102A9421E0821A91088114910471F782
S11303C0E8C0843611F0893641F5F80137FE07C0DC
S11303D060817181828193810C5F1F4F08C06081AD
S11303E07181072E000C880B990B0E5F1F4FF32DA4
S11303F0FF763F2E97FF09C0909580957095619583
S11304007F4F8F4F9F4FF0683F2E2AE030E0A301CB
S11304100E947304882E861845C0853731F4232D35
S11304202F7EB22E2AE030E025C0932D997FB92E7D
S11304308F36C1F018F4883579F0B5C0803719F0DB
S1130440883721F0B0C0E92FE061BE2EB4FE0DC0A4
S1130450FB2DF460BF2E09C034FE0AC0292F26608C
S1130460B22E06C028E030E005C020E130E002C032
S113047020E132E0F801B7FE07C06081718182811A
S113048093810C5F1F4F06C06081718180E090E012
S11304900E5F1F4FA3010E947304882E8618FB2D44
S11304A0FF773F2E36FE0DC0232D2E7FA22E8914FA
S11304B058F434FE0BC032FC09C0832D8E7EA82E66
S11304C005C0B82CA32C03C0B82C01C0B92CA4FEC1
S11304D00FC0FE01E80DF11D8081803321F49A2DB7
S11304E0997EA92E09C0A2FE06C0B394B39404C099
S11304F08A2D867809F0B394A3FC11C0A0FE06C02F
S1130500B21488F4280C922C9B180EC0B21460F418
S1130510B60180E290E00E943704B394F7CFB2149E
S113052018F42B1802C0982C212CA4FE10C0B6017C
S113053080E390E00E943704A2FE17C0A1FC03C030
S113054088E790E002C088E590E0B6010CC08A2DEF
S1130550867859F0A1FE02C08BE201C080E2A7FCBC
S11305608DE2B60190E00E943704891438F4B60194
S113057080E390E00E9437049A94F7CF8A94F301C1
S1130580E80DF11D8081B60190E00E9437048110CE
S1130590F5CF222009F442CEB60180E290E00E9419
S11305A037042A94F6CFF6018681978102C08FEF33
S11305B09FEF2B96E2E10C94ED040F931F93CF93DE
S11305C0DF93869F8001879F100D969F100D112445
S11305D0C8010E94F902EC01009729F0A80160E02B
S11305E070E00E942504CE01DF91CF911F910F91FD
S11305F008950F931F93CF93DF938230910510F4E6
S113060082E090E0E0910C02F0910D0220E030E0F5
S1130610A0E0B0E0309719F140815181028113814B
S113062048175907C8F08417950769F4109731F0F3
S113063012960C93129713961C9327C000930C02E6
S113064010930D0222C02115310519F042175307EA
S113065018F49A01BD01EF01DF01F801DBCF211588
S11306603105F9F0281B390B2430310580F48A81D7
S11306709B816115710521F0FB019383828304C082
S113068090930D0280930C02FE01329644C0FE0149
S1130690E20FF31F81939193225031093983288308
S11306A03AC020910A0230910B02232B41F420918D
S11306B002013091030130930B0220930A0220912E
S11306C00001309101012115310541F42DB73EB7E8
S11306D04091040150910501241B350BE0910A025D
S11306E0F0910B02E217F307A0F42E1B3F0B28171F
S11306F0390778F0AC014E5F5F4F2417350748F097
S11307004E0F5F1F50930B0240930A028193919303
S113071002C0E0E0F0E0CF01DF91CF911F910F9193
S11307200895CF93DF93009709F481C0FC013297B9
S113073013821282A0910C02B0910D02109781F4E1
S113074020813181820F931F20910A0230910B0284
S11307502817390751F5F0930B02E0930A0267C09A
S1130760ED0120E030E0CE17DF0740F44A815B81E1
S11307709E0141155105F1F0EA01F5CFD383C283FF
S113078040815181840F951FC817D90759F4888176
S11307909981840F951F0296918380838A819B811E
S11307A0938382832115310529F4F0930D02E0939C
S11307B00C023DC0E901FB83EA8349915991C40FBE
S11307C0D51FEC17FD0761F480819181840F951F7B
S11307D00296E90199838883828193819B838A832A
S11307E0E0E0F0E012968D919C911397009719F038
S11307F0FD01DC01F7CF8D919C9111979D012E5F36
S11308003F4F820F931F20910A0230910B02281749
S1130810390769F4309729F410920D0210920C02F2
S113082002C013821282B0930B02A0930A02DF91DA
S1130830CF910895FC010590615070400110D8F7E4
S1130840809590958E0F9F1F0895DC0101C06D93D4
S113085041505040E0F70895FC0161507040019010
S11308600110D8F7809590958E0F9F1F08950F93D0
S11308701F93CF93DF93FB01238121FD03C08FEFEF
S11308809FEF2CC022FF16C04681578124813581F9
S11308904217530744F4A081B1819D012F5F3F4F5C
S11308A0318320838C93268137812F5F3F4F378399
S11308B0268314C08B01EC01FB010084F185E02D3B
S11308C00995892BE1F6D80116968D919C9117977D
S11308D0019617969C938E931697CE01DF91CF9134
S11308E01F910F910895FA01AA27283051F1203160
S11308F081F1E8946F936E7F6E5F7F4F8F4F9F4FB0
S1130900AF4FB1E03ED0B4E03CD0670F781F891FF1
S11309109A1FA11D680F791F8A1F911DA11D6A0FBF
S1130920711D811D911DA11D20D009F468943F9172
S11309302AE0269F11243019305D3193DEF6CF0171
S11309400895462F4770405D4193B3E00FD0C9F737
S1130950F6CF462F4F70405D4A3318F0495D31FDA4
S11309604052419302D0A9F7EACFB4E0A6959795F7
S1130970879577956795BA95C9F7009761057105CD
S113098008959B01AC010A2E069457954795379517
S11309902795BA95C9F7620F731F841F951FA01D71
S11309A008952F923F924F925F926F927F928F920F
S11309B09F92AF92BF92CF92DF92EF92FF920F93EA
S11309C01F93CF93DF93CDB7DEB7CA1BDB0B0FB6F4
S11309D0F894DEBF0FBECDBF09942A8839884888B1
S11309E05F846E847D848C849B84AA84B984C88447
S11309F0DF80EE80FD800C811B81AA81B981CE0F3E
S1130A00D11D0FB6F894DEBF0FBECDBFED01089522
S1070A10F894FFCF84
S1130A1400000E0220002D2D2D2D54314E3620358C
S1130A24554E4B2D2D2D2D200A0D005374617274D7
S1130A34696E67205352414D20746573742E2E2EB3
S1130A4400577269746520706861736520657272F9
S1130A546F723A206578745F72616D5B2534645DEE
S1130A64203D2025303258202873686F756C64202B
S1130A7462652025303258290A0D00526574726962
S1130A846576616C207068617365206572726F723B
S1130A943A206578745F72616D5B2534645D203D32
S1130AA42025303258202873686F756C6420626581
S1130AB42025303258290A0D005352414D207465C3
S1130AC4737420636F6D706C6574656420776974E6
S1130AD468200A253464206572726F727320696E0B
S1130AE420777269746520706861736520616E642F
S1130AF4200A253464206572726F727320696E2033
S1130B0472657472696576616C20706861736520BE
S1070B140A200A00A5
S9030000FC
